:1000000098130020250100002101000021010000BB
:1000100000000000000000000000000000000000E0
:1000200000000000000000000000000021010000AE
:10003000000000000000000021010000210100007C
:10004000210100002101000021010000C111000078
:100050002101000021010000210100002101000018
:1000600021010000210100002114000021010000F5
:100070002101000000000000000000006D190000D8
:100080008119000095190000A91C0000BD1C00008A
:10009000D11C000000000000000000002101000051
:1000A00021010000210100002101000021010000C8
:1000B0000000000010B5064C2378002B07D1054B3B
:1000C000002B02D0044800E000BF0123237010BDC4
:1000D0003C0100200000000048240000084B10B53F
:1000E000002B03D00749084800E000BF0748036819
:1000F000002B00D110BD064B002BFBD09847F9E731
:1001000000000000400100204824000048240000B6
:100110000000000010B5014B984710BDD505000048
:10012000FEE70000F8B52A4A2A4B9A4211D01A007D
:10013000294B9A420DD2294A03339B1A9B0801335B
:100140009B000022234822498C58845004329A4252
:10015000FAD1234A234B9A420AD2D34321495B184E
:1001600003218B4304339B18002102C29342FCD12C
:100170001D4AFF211D4B8B439360FD3990235B008B
:100180001B4AD1501B4AD3780325AB430224234397
:10019000D370D3780C27BB4308263343D370164B58
:1001A000987B30229043202210439873997BB94367
:1001B000314399739A7BAA4322439A730F4A536837
:1001C00080210B4353600E4B98470E4B9847FEE738
:1001D00048240000000000203C0100200400002012
:1001E0003C0100209803002000ED00E0000000002A
:1001F00000700041005000410048004100400041B3
:100200008D220000651F000070B5124B5020195C54
:10021000042291431954195C0125A9430124214367
:10022000C9B219541838195C0F26B1430D3E314339
:10023000195451215E5C96435E545A5CAA43224392
:10024000D2B25A541A5C42390A4011310A431A5444
:1002500070BDC04600440041054A136A08210B43A3
:100260001362044B044A5A80044A5A807047C046BD
:1002700000040040000C0040154000001341000045
:1002800010B5054B98471023044A05490548064C0C
:10029000A047064B984710BD5902000054020020A9
:1002A000000C004284020020110A00000902000034
:1002B000074A4F21535C01208343034353541839A9
:1002C000535C0E3003403130034353547047C046F3
:1002D00000440041044A116A80231B010B4313624E
:1002E000024A034B5A807047000400401B40000044
:1002F000000C004010B5064B9847064B9847064B3C
:100300009847020005490648064B984710BDC0466D
:10031000D5020000B10200009D1C0000002C00422C
:1003200010020020610C0000074A5721535C012095
:100330008343034353541C39535C0E300340313024
:10034000034353547047C04600440041044A116AB5
:1003500080235B010B431362024A034B5A807047B0
:10036000000400401C400000000C004010B5064B8B
:100370009847064B9847064B9847020005490648A0
:10038000064B984710BDC0464D03000029030000EE
:100390009D1C00000030004234020020610C00006F
:1003A000074A5921535C01208343034353541D39A9
:1003B000535C0E3003403130034353547047C04602
:1003C00000440041044A116A80239B010B431362DD
:1003D000024A034B5A807047000400401C40000052
:1003E000000C004010B5064B9847064B9847064B4B
:1003F0009847020005490648064B984710BDC0467D
:10040000C5030000A10300009D1C00000034004251
:10041000D0010020610C0000074A4521535C0120F7
:100420008343034353541339535C0E30034031303C
:10043000034353547047C04600440041044A116AC4
:1004400080235B000B431362024A034B5A807047C0
:10045000000400401A400000000C004010B5064B9C
:100460009847064B9847064B9847020005490648AF
:10047000064B984710BDC0463D040000190400001B
:10048000611900000020004264020020610C00009D
:10049000074A4721535C01208343034353541439D3
:1004A000535C0E3003403130034353547047C04611
:1004B00000440041044A116A80239B000B431362ED
:1004C000024A034B5A807047000400401A40000063
:1004D000000C004010B5064B9847064B9847064B5A
:1004E0009847020005490648064B984710BDC0468C
:1004F000B5040000910400006119000000240042CE
:10050000B0010020610C0000074A4121535C01202A
:100510008343034353541139535C0E30034031304D
:10052000034353547047C04600440041044A116AD3
:100530008023DB000B431362024A034B5A8070474F
:10054000000400401B400000000C004010B5064BAA
:100550009847064B9847064B9847020005490648BE
:10056000064B984710BDC0462D0500000905000048
:100570006119000000280042F0010020610C000019
:10058000044A936910210B439361034A034B5A8039
:100590007047C0460004004003410000000C0040CA
:1005A00010B5064B9847482205490120054B98474E
:1005B0000548064B0360064B984710BD81050000B7
:1005C000D4220000D50E00003002002000100040B0
:1005D000E51C0000F0B5C64600B5754B9847C02233
:1005E000D205012151619160724B73489862C02419
:1005F00024069C6240208046185C88434546585536
:10060000042050606D4D9D626D4D9D6242269F5D40
:1006100087439F559F5D8F439F553A3E5660694E75
:100620009E629D6243269F5D87439F559F5D8F43DA
:100630009F55333E5660644E9E629D6244269F5D88
:1006400087439F559F5D8F439F55464656605F4E3B
:100650009E629D6246255E5D86435E555E5D8E436D
:100660005E55BA3555619560594D9D629C6248262C
:100670009D5D8D439D558025AD0055619560554D1F
:100680009D629C6201369D5D8D439D558025ED00E8
:1006900055619560504D9D629C624A27DE5D8E4398
:1006A000DE5580263601566196604C4E9E629C62F5
:1006B0000137DE5D8E43DE558026F6015661966079
:1006C000474E9E629C624E269C5D8C439C558024C6
:1006D000E4025460434C9C62434E9E6252269F5DEE
:1006E00087439F559F5D8F439F55802636035660F5
:1006F0009C623E4E9E6253269F5D87439F559F5D41
:100700008F439F558026F60356609C62384E9E624A
:1007100056269F5D87439F559F5D8F439F5580263B
:10072000760456609C62334E9E6258269F5D8743D6
:100730009F559F5D8F439F558026360556609C626E
:100740002D4C9C625B241E5D86431E55185D8843BC
:10075000185580204005506190608022D2059A6231
:10076000264A9A625C201A5C8A431A54244B9847A2
:10077000AB6920221343AB61224A234B5A80234B9F
:100780009847020022492348234B9847234B984718
:10079000234B9847234B9847234B9847234B984725
:1007A000234B9847234B984704BC9046F0BDC04666
:1007B00045100000004400410100004004000240D8
:1007C000000002C008000240100002404000024049
:1007D000000100400002004000040040000800400A
:1007E0000040004000000240040002C0080002C0B7
:1007F000400002C0000102C0000802C0001000C09A
:100800008102000004410000000C0040BB11000008
:1008100000140040DC020020A90D0000F5020000D9
:100820006D030000E50300005D040000D504000036
:100830004D050000A1050000EFF31083036072B6C0
:10084000BFF35F8F7047BFF35F8F036883F3108838
:10085000704710B5836A002B00D0984710BD10B5C3
:10086000836B002B00D0984710BD10B5C36B002BD5
:1008700000D0984710BD000010B504004030044B74
:100880009847636B002B01D02000984710BDC046ED
:10089000E10F000010B55423C25A002A04D1C36AE4
:1008A000002B00D0984710BD5621435A01339BB20C
:1008B00043529A4209D1002356228352023A83526C
:1008C000036B002BEFD09847EDE7026DD15C014B35
:1008D0009847E8E79913000070B504000E00150072
:1008E000002817D0002917D01000431E9841C022BD
:1008F00052000C490C4B9847E28EA38E9A420DD1C0
:100900002000203806655423C5523178074B98479C
:10091000280070BD0020EAE70020E8E704204042FC
:10092000F7E7C04608230000D50E00009913000029
:10093000F0B5CE46474680B585B005000E001700DD
:10094000002815D0002913D0002A2AD16622FF32B0
:1009500029490020294B984703A8294B984728008C
:100960002030284B984703A8274B984700253CE0A8
:100970006622FF3220490020204B984703A8204BD5
:1009800098472035280001951E4B9847804603A8BC
:100990001D4B984700254346002B26D0002F16D12B
:1009A00023E06622FF3214490120144B984703A824
:1009B000134B9847203528000195124B98478046E5
:1009C00003A8114B984743460025002B0DD0002467
:1009D0000E4B9946651CADB231190198C8470134D8
:1009E000444502D2A3B29F42F4D8280005B00CBC03
:1009F00090469946F0BDC04608230000D50E000081
:100A0000390800002110000047080000990F00007D
:100A1000F8B504000D0016001F0000282CD0002996
:100A20002CD0002A2CD01800431E98413D22174993
:100A3000174B9847200040303A003100154B98473B
:100A400000281FD129002000134B9847002812D1FD
:100A5000124B6362124B2362124B6360124BA36012
:100A6000124BE360124B2361124B63610023562249
:100A7000A352023AA352F8BD0020D7E70020D5E7E1
:100A80000020D3E70D204042F5E7C04608230000D0
:100A9000D50E0000450F0000E112000031090000F2
:100AA000D9080000530800009508000079080000EC
:100AB0005F0800006B08000070B50400431E9841F9
:100AC000C0B269220F49104B984720000F4B98473E
:100AD000051E01D0280070BD0122012120000C4E0E
:100AE000B047012202212000B0470122002120004E
:100AF000B047012203212000B04701220421200039
:100B0000B047E7E708230000D50E00006913000096
:100B1000A113000070B504000D00431E9841C0B23F
:100B200090220949094B98472000094B9847002813
:100B300004D029002000074B984770BD7F21294031
:100B40002000044B9847F8E708230000D50E00006A
:100B50007F1300008913000070B505000C0016001B
:100B6000431E9841C0B29F220E490F4B9847052C57
:100B700015D8A4000D4B1B599F46AE62002070BDD6
:100B8000EE620020FBE72E630020F8E76E63002092
:100B9000F5E7AE630020F2E7EE630020EFE7012007
:100BA0004042ECE708230000D50E0000F0220000D0
:100BB00070B504000D0000280BD00800431E9841BA
:100BC000C0B2C1220449054B984720342C60002054
:100BD00070BD0020F5E7C04608230000D50E0000D8
:100BE00070B506000C00150000280DD00800431E4B
:100BF0009841C0B234220549054B984733682A0012
:100C000021003000984770BD0020F3E72823000042
:100C1000D50E000070B506000C00150000280DD0A0
:100C20000800431E9841C0B23D220549054B984734
:100C300073682A0021003000984770BD0020F3E758
:100C400028230000D50E000010B54369002B00D00A
:100C5000984710BD10B58369002B00D0984710BD90
:100C600070B504000D001600002813D0002913D021
:100C70001000431E984133220849094B9847E6610A
:100C80003368290020009847064B2360064B6360B9
:100C9000002070BD0020EEE70020ECE73C230000C0
:100CA000D50E0000490C0000550C0000F8B5CE46EA
:100CB000474680B5814603689C46002B05D08E6868
:100CC0001C0000250127BF1A0DE0124B984718E0C1
:100CD000FB18A06880464344B3420CD22368250029
:100CE000002B0BD01C0063689342F1D8A0688046AB
:100CF00043449B1AF0E7A44507D02C002000064B84
:100D000098470CBC90469946F8BD4846014B984719
:100D1000F7E7C046010F00002D0F0000F0B5C646F2
:100D200000B582B007004469036901339846036146
:100D3000037EDB0711D4037E9B070ED4002C10D05A
:100D4000434662689B1AA26893420AD314239C46C6
:100D5000844463460193124E14E03B7E0222134307
:100D60003B7602B004BC9046F0BD7D69E36820008C
:100D70009847002DF5D02C0043466A689B1AAA6854
:100D80009342EED30198B047237C012BEDD143462B
:100D90006360424621000198024B9847E5E7C04650
:100DA000350F0000AD0C000070B505000C000028E8
:100DB00011D00800431E9841C0B23B220749084B9E
:100DC000984721002800074B984700232B61064BCA
:100DD0002B60002070BD0020EFE7C04654230000C8
:100DE000D50E0000F91000001D0D000010B5040024
:100DF000431E9841C0B253220749084B9847200030
:100E0000074B9847002804D12000064B9847002044
:100E100010BD11204042FBE754230000D50E000016
:100E2000A91100005511000070B582B004000D003A
:100E3000002824D00800431E9841C0B27A221E49DF
:100E40001E4B9847237E0122134323762600143637
:100E5000290030001A4B9847002812D123696B6093
:100E6000226929003000174B9847237E01229343C3
:100E70002376237E00209B070FD402B070BD002094
:100E8000DCE7237E0122934323767E320A49002049
:100E90000A4B984712204042EFE701A80A4B9847B7
:100EA000237E0222934323762000084B984701A813
:100EB000074B98470020E0E754230000D50E0000C0
:100EC000DD0E0000AD0C000039080000B911000073
:100ED00047080000002800D100BE70470368002BBF
:100EE0000AD08B420AD01B68002B03D09942FAD15A
:100EF000012000E0002070470020FCE70120FAE715
:100F000070B504000D00064B984701235840C0B24D
:100F100039220449044B984723682B60256070BD33
:100F2000DD0E00006C230000D50E000003680B608E
:100F3000016070470368002B01D01A680260180036
:100F40007047000070B504000E00150000280BD09B
:100F5000002918D00120002A07D128220C4900209E
:100F60000C4B98476B1E07E0002028220849094BCC
:100F700098476B1E2B4208D163600023A360E36097
:100F80002660002070BD0020EFE70D204042F9E709
:100F90008C230000D50E000070B504000D00002861
:100FA00015D00800431E9841C0B240220A490B4B9D
:100FB0009847A368E2689A420BD06268134022689F
:100FC000D35C2B70A3680133A360002070BD0020A8
:100FD000EBE70A204042F9E78C230000D50E000021
:100FE00070B504000D00431E9841C0B251220A4959
:100FF0000A4B98476368E26813402268D554E36857
:101000006168A2689A1A8A4201D9591AA16001330B
:10101000E360002070BDC0468C230000D50E0000A8
:1010200010B50400431E9841C0B267220349044B27
:101030009847E068A368C01A10BDC0468C23000022
:10104000D50E000010B5084A536802210B435360C7
:10105000064B9847064B98470820064CA047064B7E
:101060009847F720A04710BD00400041D91000006C
:10107000B51400007D100000FD140000C30709D561
:10108000104B802252009A600F4A5A601A0053781F
:10109000DB09FCD1830709D50A4B0222FF329A6093
:1010A0000A4A5A601A005378DB09FCD1030708D5B5
:1010B000044B074A9A60074A5A601A005378DB09C2
:1010C000FCD17047000C0040000701000106010040
:1010D0000320000003060100064B1A7AD2B21A72EE
:1010E0005A7AD2B25A729A7AD2B29A72DA7AD2B260
:1010F000DA7270470004004070B504000D00431E12
:101100009841C0B233221049104B9847E560012343
:101110002B80AB7ADB09FCD1E268937ADB09FCD146
:1011200080331380937ADB09FCD1E26893698023D2
:10113000DB009361937ADB09FCD10133E268D37160
:10114000034B1C60002070BDB0230000D50E0000D2
:101150005801002010B5041E1DD0C068431E9841E0
:10116000C0B26A220D490E4B984708220D4B1A60F7
:10117000E268136900231361937ADB09FCD1E2680A
:10118000937ADB09FCD1138802210B431380937AF5
:10119000DB09FCD110BD0020E3E7C046B02300000E
:1011A000D50E000000E100E0C268937ADB09FCD1B3
:1011B00010888007C00F70477047002070470000FC
:1011C00010B5074B1C68E3681B7ADB0707D523685B
:1011D000002B01D020009847E36801221A7210BD4D
:1011E0005801002070B582B004000D000322E369AD
:1011F0001A42FCD12668B607F60F01A8104B984793
:1012000023680222934323600132E3691A42FCD12E
:10121000636A0C4A13406D000B4A15401D4365621A
:1012200001A80A4B9847002E07D0236802221343D7
:1012300023600132E3691A42FCD1002002B070BD84
:101240003908000001F8FFFFFE0700004708000012
:1012500010B51E4BC3189B0ADBB2012B07D01C4AEA
:101260001C4900201C4B98470D2040422CE0C369CC
:10127000DB0718D40322C3691A42FCD103689B0719
:101280000BD503680222934303600132C3691A42FB
:10129000FCD10222C3691A42FCD11123036003224C
:1012A000C3691A42FCD10122C3691A42FCD10B4B1B
:1012B00003600322C3691A42FCD1A023DB00436010
:1012C000A5235B004362002010BDC04600F8FFBDAF
:1012D000D6070000C8230000D50E00001000200033
:1012E00070B505000C00431E9841C0B2164A17495C
:1012F000174B98472000174B9847002800D070BD27
:101300002C60154B9C421AD0144BE3189B0A0933EE
:10131000D9B21B060ED41F220A4001239340104A63
:1013200080215350BFF34F8FBFF36F8F0131FF31D7
:10133000535013600223A375013BA375DFE7094BEC
:101340001D600A21E7E7C046AD060000C823000083
:10135000D50E000051120000000C004200F8FFBD45
:1013600000E100E05C0100200268136802210B43E9
:1013700013600131D3691942FCD100207047036822
:10138000586A0004C00F704710B50068014B9847B9
:1013900010BDC046E511000002682823D1547047F3
:1013A00070B505000C001600431E9841C0B2EE2235
:1013B000D2001949194B9847631E012B09D9032CF8
:1013C00010D0002C1AD12B68002E14D180221A754F
:1013D00016E02B68002E02D104221A7510E00422B8
:1013E0009A750DE02B68002E02D102221A7507E0D3
:1013F00002229A7504E080229A7501E0042C01D043
:10140000002070BD2B68002E02D001229A75F7E7EC
:1014100001221A75F4E7C046C8230000D50E00006B
:1014200070B51F4B1E6835682C7EE4B263B2002B8A
:101430001DDBA30701D502232B76E30701D501238A
:101440002B76630712D56B8B1B071CD4F068431EE9
:101450009841C0B2134A1449144B98472823E95CB9
:10146000C9B2F3683000984704232B7670BD7068CA
:10147000431E9841C0B20E4A0B490C4B98473000AE
:1014800073689847D5E7B068431E9841C0B2F3220D
:10149000D2000549054B9847B36830009847E3E709
:1014A0005C01002095070000C8230000D50E000055
:1014B0008A0700000E4B1A6A196A0E480240890F0B
:1014C00089070D4801430A431A629A6902210A43B7
:1014D0009A611A7F1D310A401A7719000822CB68D9
:1014E0001A42FCD0024A136A80210B4313627047F0
:1014F000000800400000FF0F0203000002221C4B06
:101500009A8419000E32CB681A42FCD0194A184B43
:10151000DA62194B1B689B0E3F2B1FD09B02802267
:1015200092001343124A936202239384938C5B07C5
:1015300017D51100D022CB681340D02BFBD10C4A19
:10154000938C80210B4393840C4A5378DB09FCD1A4
:10155000074A936902218B4393617047FC23DB01A7
:10156000E0E703491022CB681A42FCD0E7E7C04607
:10157000000800400000010424608000000C0040CE
:101580000269136802210B43136001319368194209
:10159000FCD170470269136802218B43136001314B
:1015A00093681942FCD1704702698021C90293688F
:1015B0000B42FCD1D06E7047026903219368194237
:1015C000FCD110688007C00F704770B50500046932
:1015D000E36ADB0705D50123E3620368002B00D033
:1015E0009847A36A1B0706D50823E3626B68002BA4
:1015F00001D02800984770BD0C4B1B6898420ED054
:101600000A4B5B69984208D0084B9A6A00238242D1
:1016100001D018007047023302E0012300E00023EC
:101620009800C0188000014B1B18F2E70000002052
:10163000F8B506000C00794BDB6B99420FD0774B65
:101640005B6E994209D08C23744AD3580225994283
:1016500006D00A235B421800F8BD012500E00025F2
:1016600020006F4B9847002800D1D1E03461A36877
:10167000DB0718D40322A3681A42FCD123689B0716
:101680000BD523680222934323600132A3681A42D8
:10169000FCD10222A3681A42FCD101232360032259
:1016A000A3681A42FCD10122A3681A42FCD1AB0004
:1016B0005B19DB00594AD3185B6C23600322A368D3
:1016C0001A42FCD1554A11003C31AB005F19FF00B2
:1016D000C9190F7B6771497BA1775B19DB00D318B0
:1016E000DB6C23620369E3634E4AA3681342FCD1B7
:1016F000836823648022A3681A42FCD1AB005B1983
:10170000DB00464AD31882681A664379012B4CD015
:10171000002B06D0022B56D0032B62D01C235B4239
:1017200099E7C268AB005D19ED003C4B5D192A6575
:101730006264F0221201A3681342FCD102232371D8
:10174000394B9C425BD0394B9C425BD0384B9C421E
:101750005BD00423C356002B5DDB1F221A400123FC
:101760009340802233498B50BFF34F8FBFF36F8F6D
:10177000042141560023002900DA6CE7613A0A404F
:1017800001339340C02252002A498B500421415614
:101790000023002900DA5EE7623AFF3A0A4001338B
:1017A0009340244A1360002355E7C268AB005D19DB
:1017B000ED001A4B5D196A65A264F0221201A3685C
:1017C0001342FCD1BAE7C268AB005D19ED00134BC0
:1017D0005D19AA65E264F0221201A3681342FCD1EC
:1017E000ACE7C268AB005D19ED000C4B5D19EA6512
:1017F0002265F0221201A3681342FCD19EE70E4B32
:101800001E60A6E70C4B5E60A3E70B4B9E60A0E753
:101810000A235B421FE700231DE7C04600000020AB
:10182000F9150000FF0F7F00002000420024004255
:101830000028004200E100E06001002010B50469CA
:101840002000114B984700281DD00423C356002BBD
:101850000ADB1F221A400123934080220B498B5040
:10186000BFF34F8FBFF36F8F236802229343236030
:101870000132A3681A42FCD123680122134323607A
:10188000A3681A42FCD110BDF915000000E100E088
:1018900070B50E001500046920000A4B9847002817
:1018A0000ED0E6668022D202A3681342FCD14379AF
:1018B0001C339B001D51F022D203A3681342FCD1BC
:1018C00070BDC046F915000010B5046920000E4B2C
:1018D0009847002815D08022D202A3681342FCD179
:1018E000E16E4079F022D203A3681342FCD10300D9
:1018F0001C339B001B59FA2080005843034B984728
:1019000010BD0A204042FBE7F915000075210000D8
:1019100070B504000E001500431E9841C0B2A3220A
:1019200052000D490D4B9847002E08D12369002D18
:1019300002D101225A6204E001229A6201E0012EE2
:1019400000D070BD2369002D02D008229A62F8E70A
:1019500008225A62F5E7C046E4230000D50E0000D5
:10196000014834307047C0468000002010B5024B5B
:101970001868024B984710BD60010020CB1500008D
:1019800010B5024B5868024B984710BD600100200B
:10199000CB15000010B5024B9868024B984710BD5C
:1019A00060010020CB1500000269138802210B435F
:1019B000138070470269138802218B43138070479C
:1019C000036918888007C00F704770B50500046967
:1019D000A37BDB0705D50123A3730368002B00D08D
:1019E0009847637B9B0706D50223A3736B68002B84
:1019F00001D02800984770BD02690D4BD3189B0A8F
:101A00001233D8B21B060AD41F21014001238B4098
:101A1000802108484350BFF34F8FBFF36F8F138867
:101A200002218B431380138801390B4313807047C5
:101A300000D4FFBD00E100E070B504000E00150009
:101A4000431E9841C0B28A2252000D490D4B98475F
:101A5000002E08D12369002D02D101221A7304E05F
:101A600001225A7301E0012E00D070BD2369002DC0
:101A700002D002225A73F8E702221A73F5E7C04631
:101A8000FC230000D50E000010B5104BC3189B0AB4
:101A90000333DBB20E4A12789A4214D00C4A127DFC
:101AA0009A420ED028220A498A5C02209A420BD020
:101AB0007C22FF3207490020074B98470120404213
:101AC00010BD012000E0002040B2F9E700D4FFBDC6
:101AD000D8000020FC230000D50E000070B50500E2
:101AE0000C000800384B98472C61E37BDB09FCD1E4
:101AF00023889B0704D500232380E37BDB09FCD1EB
:101B000001232380E37BDB09FCD183001B189A00AF
:101B10002E4B9B185A88228019792172DB886381A9
:101B20000C231340082B30D0002B4AD127498300C7
:101B30001A1892008A1892892283181880000818AF
:101B4000038A6383224B9C422CD0224B9C422CD094
:101B5000214B9C4231D0214B9C466444A40A123450
:101B6000E3B2002022060FD41F221A400123934023
:101B70001B4A80215350BFF34F8FBFF36F8F01314A
:101B8000FF3153501360002070BD104983001A18B4
:101B900092008A18D268A261181880000818036998
:101BA000E361CFE70F4B1D60D5E70E4B5D600B4B3C
:101BB000E218920A1232D3B2D6E70A4B9D60142380
:101BC000D2E701204042DFE7891A0000D800002058
:101BD000002C0042003000420034004200D4FFBD1F
:101BE00000E100E06C01002070B506000D0014005B
:101BF00000690B4B984736690A4983001A1892000E
:101C00008A18D560146152880C231340082B04D025
:101C1000ADB23583A4B2748370BDB561F461FBE7E6
:101C2000891A0000D800002010B504692000084B74
:101C30009847830018188000064B181842880C2318
:101C40001340082B02D0208B80B210BDA069FCE7A6
:101C5000891A0000D800002010B5046920000C4B40
:101C600098478300181880000A4B181842880C23E4
:101C70001340082B09D0218B89B2638B9BB2FA20C9
:101C800080005843044B984710BDA169E369F6E70B
:101C9000891A0000D80000207521000001483C305E
:101CA0007047C046D800002010B5024B1868024BA0
:101CB000984710BD6C010020CB19000010B5024BF5
:101CC0005868024B984710BD6C010020CB190000EA
:101CD00010B5024B9868024B984710BD6C0100206C
:101CE000CB19000010B5041E25D00068431E984192
:101CF000C0B24F221449154B98472268D379DB09AB
:101D0000FCD11378DB0918D1D379DB09FCD1137826
:101D10009B0715D4137804218B431370D379DB0907
:101D2000FCD1226853780F218B435370D379DB09A0
:101D3000FCD1002010BD0020DBE711204042F9E774
:101D400011204042F6E7C04610240000D50E0000E6
:101D50000268136801210B431360D3691942FCD157
:101D60000368FF221A76FE3A014B1A707047C0468C
:101D70007801002010B5084B1B88DAB207490A70B9
:101D80001B0A4B7053408B70054C04226068054B56
:101D900098470023237210BD38010020F80200206C
:101DA00078010020E10B0000014B18787047C04615
:101DB00078010020F0B5D6464F464646C0B584B0FF
:101DC00003A8204B9A469847C023DB0598461C6819
:101DD0001D4B99461A6A43461B6953401C405440A8
:101DE00003A81A4FB84702A8D04743461D684B4680
:101DF0001A6A43461B6953401D40554002A8B84724
:101E0000A408012634406400ED083540AD002C43A1
:101E100001A8D04743461D684B46186A43461B69D4
:101E200043401D40454001A8B8472D092E40F6000B
:101E300026433000203004B01CBC90469946A24690
:101E4000F0BDC046390800000044004147080000CA
:101E500010B51C4C1C4B5868022221001B4B9847A4
:101E600022781F23110099430B0020290CD0C9B2FE
:101E7000E02910D0002B00D010BD134B586803226E
:101E80001349124B9847F7E70E4B5878114B984778
:101E9000114B1880F0E71F231A40012A0CD0002AAA
:101EA00005D0022AE8D101220B4B1A80E4E7022276
:101EB000FF32094B1A80DFE7084B9847064B188022
:101EC000DAE7C046FC02002078010020150C000073
:101ED000FE020020991F000038010020B51D0000FF
:101EE00070B50E4C0E49043120000E4B98470E4A37
:101EF000052120000D4DA8470D4A01212000A847CB
:101F00000C4A00212000A84720000B4B98470B4BA0
:101F1000984781B220000A4B984770BD8402002088
:101F200078010020B10B0000511E0000590B000089
:101F3000751D0000511D0000B90A0000B51D00000C
:101F4000150B000010B50022034B1A70034B984785
:101F5000034B984710BDC046780100208102000065
:101F6000E11E000070B5074B9847074B9847074B99
:101F70009847074B9847074C054DA0470028FCD0D1
:101F8000A847FAE715010000E11F00004121000009
:101F9000451F0000A91D0000F0B50021002818D140
:101FA0000D4B00269E5F0D4B0022012503E0013200
:101FB0000433062A0DD01C009878002803D028008E
:101FC0009040014389B20027E05F0028EFD12680CE
:101FD000EDE70800F0BDC0463A0100203C030020B8
:101FE00010B50D4B0020185E0C4B19001831002263
:101FF0009A70188004339942FAD1094901238B6001
:10200000084ACA600B74084C2000084B984720000F
:10201000074B984710BDC0463A0100203C03002002
:10202000840100207D200000DC020020290E000039
:10203000ED0D000010B5002815D1052913D88B002F
:102040000C481B5E002B0EDD8C000A4800198078BE
:10205000904209D0013B1BB22000064C0353002BD9
:1020600001D121188A7010BD8900034B1A88014BD9
:10207000CA52F8E73C0300203A010020F0B583B0D3
:10208000C026F60580235B05F36101A8174B98472E
:102090003468174B1B6A35695D402C405C4001A8D1
:1020A000144B9847610C6506ED0F02220A40154358
:1020B00004230B401D43E20C082313401D43220D53
:1020C000102313401D43A40D20231C40254300244E
:1020D0000127094E2A0022413A40E1B20020B047D0
:1020E0000134062CF6D103B0F0BDC046390800001B
:1020F0000044004147080000352000000D4B1B68DC
:10210000002B02D0013B0B4A13600B4B1A78002ABC
:102110000FD00A4B013AD1B201318900C91802E04F
:1021200004338B4205D01A68013AD01CF8D81A60E3
:10213000F6E7704794030020980100205403002024
:1021400010B507490123CB60064A0A610B750431BB
:10215000054C2000054B98472000054B984710BDC3
:1021600098010020FD200000DC020020290E000064
:10217000ED0D0000002243088B4274D303098B420B
:102180005FD3030A8B4244D3030B8B4228D3030C47
:102190008B420DD3FF22090212BA030C8B4202D3E9
:1021A0001212090265D0030B8B4219D300E0090A11
:1021B000C30B8B4201D3CB03C01A5241830B8B421A
:1021C00001D38B03C01A5241430B8B4201D34B0303
:1021D000C01A5241030B8B4201D30B03C01A524168
:1021E000C30A8B4201D3CB02C01A5241830A8B42ED
:1021F00001D38B02C01A5241430A8B4201D34B02D6
:10220000C01A5241030A8B4201D30B02C01A524139
:10221000CDD2C3098B4201D3CB01C01A52418309ED
:102220008B4201D38B01C01A524143098B4201D327
:102230004B01C01A524103098B4201D30B01C01A52
:102240005241C3088B4201D3CB00C01A52418308CC
:102250008B4201D38B00C01A524143088B4201D3F9
:102260004B00C01A5241411A00D201465241104659
:102270007047FFE701B5002000F006F802BDC04638
:102280000029F7D076E770477047C04670B5002642
:102290000C4D0D4C641BA410A64209D1002600F081
:1022A000C3F80A4D0A4C641BA410A64205D170BDA8
:1022B000B300EB5898470136EEE7B300EB58984768
:1022C0000136F2E7342400003424000034240000F6
:1022D000382400002E2E2F68616C2F696E636C7598
:1022E00064652F68616C5F7764742E68000000007D
:1022F0007A0B0000800B0000860B00008C0B0000A6
:10230000920B0000980B00002E2E2F68616C2F732B
:1023100072632F68616C5F6932635F735F617379A9
:102320006E632E63000000002E2E2F68616C2F73E9
:1023300072632F68616C5F696F2E63002E2E2F68A9
:10234000616C2F7372632F68616C5F70776D2E63A1
:10235000000000002E2E2F68616C2F7372632F68AF
:10236000616C5F74696D65722E6300002E2E2F689C
:10237000616C2F7574696C732F7372632F75746938
:102380006C735F6C6973742E630000002E2E2F68CF
:10239000616C2F7574696C732F7372632F75746918
:1023A0006C735F72696E676275666665722E630034
:1023B0002E2E2F68706C2F7274632F68706C5F7292
:1023C00074632E63000000002E2E2F68706C2F7334
:1023D0006572636F6D2F68706C5F736572636F6D8C
:1023E0002E6300002E2E2F68706C2F7463632F688D
:1023F000706C5F7463632E63000000002E2E2F68E4
:10240000706C2F74632F68706C5F74632E630000B0
:102410002E2E2F68706C2F7764742F68706C5F7726
:1024200064742E6300000000F8B5C046F8BC08BC18
:102430009E467047DD000000F8B5C046F8BC08BCF9
:082440009E467047B500000044
:10244800002000420F0100006F170000B70B0000CA
:102458000200000000240042100100006F17000075
:10246800B70B000002000000002800421101000024
:102478006F170000B70B00000200000000200042A8
:102488000F00000000030000020000000000000030
:102498000000000000000000000000000000000034
:1024A8001027000000240042100000000003000074
:1024B8000200000000000000000000000000000012
:1024C8000000000000000000102700000028004263
:1024D80011000000000300000200000000000000DE
:1024E80000000000000000000000000000000000E4
:1024F80010270000311600003D180000811500006B
:102508009515000091180000B9150000A9150000E4
:10251800C918000011190000030060030000000042
:10252800320000006F170000B70B000004006003C2
:1025380000000000320000006F170000B70B000019
:102548000500600300000000320000006F17000063
:10255800B70B0000DD1A0000F9190000A9190000E6
:10256800B5190000E91B0000C1190000291C000072
:0C257800591C0000391A0000007003001C
:00000001FF
